{
  "_format": "hh-sol-artifact-1",
  "contractName": "FactoryPool",
  "sourceName": "contracts/FactoryPool.sol",
  "abi": [
    {
      "inputs": [],
      "stateMutability": "nonpayable",
      "type": "constructor"
    },
    {
      "anonymous": false,
      "inputs": [
        {
          "indexed": true,
          "internalType": "address",
          "name": "token0",
          "type": "address"
        },
        {
          "indexed": true,
          "internalType": "address",
          "name": "token1",
          "type": "address"
        },
        {
          "indexed": false,
          "internalType": "address",
          "name": "pool",
          "type": "address"
        },
        {
          "indexed": false,
          "internalType": "uint256",
          "name": "",
          "type": "uint256"
        }
      ],
      "name": "PoolCreated",
      "type": "event"
    },
    {
      "inputs": [
        {
          "internalType": "uint256",
          "name": "",
          "type": "uint256"
        }
      ],
      "name": "allPools",
      "outputs": [
        {
          "internalType": "address",
          "name": "",
          "type": "address"
        }
      ],
      "stateMutability": "view",
      "type": "function"
    },
    {
      "inputs": [],
      "name": "allPoolsLength",
      "outputs": [
        {
          "internalType": "uint256",
          "name": "",
          "type": "uint256"
        }
      ],
      "stateMutability": "view",
      "type": "function"
    },
    {
      "inputs": [
        {
          "internalType": "address",
          "name": "tokenA",
          "type": "address"
        },
        {
          "internalType": "address",
          "name": "tokenB",
          "type": "address"
        }
      ],
      "name": "createPool",
      "outputs": [
        {
          "internalType": "address",
          "name": "pool",
          "type": "address"
        }
      ],
      "stateMutability": "nonpayable",
      "type": "function"
    },
    {
      "inputs": [
        {
          "internalType": "address",
          "name": "",
          "type": "address"
        },
        {
          "internalType": "address",
          "name": "",
          "type": "address"
        }
      ],
      "name": "getPool",
      "outputs": [
        {
          "internalType": "address",
          "name": "",
          "type": "address"
        }
      ],
      "stateMutability": "view",
      "type": "function"
    }
  ],
  "bytecode": "0x6080806040523461001657612308908161001c8239f35b600080fdfe6080604052600436101561001257600080fd5b6000803560e01c90816341d1de971461005a57508063531aa03e14610055578063e3433615146100505763efde4e641461004b57600080fd5b6103a3565b610141565b6100ea565b346100b65760203660031901126100b657600435906001548210156100b657600190527fb10e2d527612073b26eecdfd717e6a320cf44b4afac2b0732d9fcbe2b7fa0cf601546001600160a01b0316608052607f1960a0016080f35b80fd5b600435906001600160a01b03821682036100cf57565b600080fd5b602435906001600160a01b03821682036100cf57565b346100cf5760403660031901126100cf5760206101056100b9565b6101376101106100d4565b6001600160a01b039283166000908152808552604080822092851682526020929092522090565b5416604051908152f35b346100cf5760403660031901126100cf5761015a6100b9565b6101626100d4565b6001600160a01b039181831681841661017d818314156103c1565b101561039357905b82821661019381151561040d565b6101f26101ec6101e06101d3856101bc8860018060a01b03166000526000602052604060002090565b9060018060a01b0316600052602052604060002090565b546001600160a01b031690565b6001600160a01b031690565b15610451565b611d52610201602082016104e5565b908082526020820190620005818239604051606086811b6bffffffffffffffffffffffff19908116602084019081529187901b166034830152602882529061024a6048826104c3565b5190209151906000f59284841694853b156100cf5760405163485cc95560e01b81526001600160a01b03838116600483015285166024820152956000908790604490829084905af191821561038e57856102f161032d92610371997febbbe9dc3a19d2f959ac76ac0372b4983cdfb945f5d6aef4873c36fabb2ba8aa96610375575b50610310836102f18a6101bc8560018060a01b03166000526000602052604060002090565b80546001600160a01b0319166001600160a01b03909216919091179055565b6001600160a01b03881660009081526020819052604090206101bc565b61033685610501565b600154604080516001600160a01b038816815260208101929092529190941693a36040516001600160a01b0390911681529081906020820190565b0390f35b80610382610388926104aa565b80610398565b386102cc565b6104f5565b610185565b60009103126100cf57565b346100cf5760003660031901126100cf576020600154604051908152f35b156103c857565b60405162461bcd60e51b815260206004820152601c60248201527f466163746f72793a204944454e544943414c5f414444524553534553000000006044820152606490fd5b1561041457565b60405162461bcd60e51b8152602060048201526015602482015274466163746f72793a205a45524f5f4144445245535360581b6044820152606490fd5b1561045857565b60405162461bcd60e51b8152602060048201526014602482015273466163746f72793a20504f4f4c5f45584953545360601b6044820152606490fd5b634e487b7160e01b600052604160045260246000fd5b67ffffffffffffffff81116104be57604052565b610494565b90601f8019910116810190811067ffffffffffffffff8211176104be57604052565b906104f360405192836104c3565b565b6040513d6000823e3d90fd5b600154680100000000000000008110156104be57600181018060015581101561056a5760016000527fb10e2d527612073b26eecdfd717e6a320cf44b4afac2b0732d9fcbe2b7fa0cf60180546001600160a01b0319166001600160a01b03909216919091179055565b634e487b7160e01b600052603260045260246000fdfe60a03462000349576001600160401b0390604090808201838111828210176200024957825260078152602092660534b59535741560cc1b848301528251908382018281108282111762000249578452600380835262534b5960e81b86840152835182811162000249578154906001958683811c931680156200033e575b8984101462000328578190601f93848111620002d2575b5089908483116001146200026b576000926200025f575b505060001982851b1c191690861b1782555b835192831162000249576004938454978689811c991680156200023e575b818a101462000229578883869798999a11620001cd575b50809285116001146200015f575060009362000153575b505082851b92600019911b1c19161790555b61dead608052600955600580546001600160a01b0319163317905551611a0390816200034f8239608051818181610f1501526112570152f35b01519150388062000108565b929190879550601f1985168760005284600020946000905b828210620001b3575050851162000198575b50505050811b0190556200011a565b01519060f884600019921b161c191690553880808062000189565b8484015187558a9890960195938401939081019062000177565b90919293945086600052816000208480880160051c8201928489106200021f575b918a91899897969594930160051c01915b8281106200020f575050620000f1565b600081558897508a9101620001ff565b92508192620001ee565b602286634e487b7160e01b6000525260246000fd5b98607f1698620000da565b634e487b7160e01b600052604160045260246000fd5b015190503880620000aa565b90889350601f19831691866000528b6000209260005b8d828210620002bb5750508411620002a2575b505050811b018255620000bc565b015160001983871b60f8161c1916905538808062000294565b8385015186558c9790950194938401930162000281565b90915084600052896000208480850160051c8201928c86106200031e575b918a91869594930160051c01915b8281106200030e57505062000093565b600081558594508a9101620002fe565b92508192620002f0565b634e487b7160e01b600052602260045260246000fd5b92607f16926200007c565b600080fdfe608060408181526004908136101561001657600080fd5b600092833560e01c90816306fdde03146114be575080630902f1ac14611487578063095ea7b3146113dd5780630dfe1681146113b457806318160ddd1461139557806323b872dd146112a2578063313ce567146112865780634763238214611242578063485cc955146111a85780636a62784214610de55780636d9a640a1461098657806370a082311461094f57806389afcb441461055f57806395d89b411461045b578063a9059cbb1461042a578063ba9a7a561461040d578063bc25cf77146102c7578063c45a01551461029e578063d21220a714610275578063dd62ed3e146102285763fff6cae91461010b57600080fd5b346101d457826003193601126101d457610129600160095414611750565b600983905560065481516370a0823160e01b8082523082860152936001600160a01b03926020919082908490602490829088165afa92831561021e5787936101e8575b506024829394600754169686519788938492835230908301525afa9283156101df575084926101a9575b506101a192506117cb565b600160095580f35b90915082813d83116101d8575b6101c08183611629565b810103126101d4576101a191519038610196565b8280fd5b503d6101b6565b513d86823e3d90fd5b9180935082813d8311610217575b6102008183611629565b810103126102135790519190602461016c565b8680fd5b503d6101f6565b85513d89823e3d90fd5b838234610271578060031936011261027157806020926102466115f8565b61024e611613565b6001600160a01b0391821683526001865283832091168252845220549051908152f35b5080fd5b83823461027157816003193601126102715760075490516001600160a01b039091168152602090f35b83823461027157816003193601126102715760055490516001600160a01b039091168152602090f35b50346101d45760209081600319360112610409576102e36115f8565b906102f2600160095414611750565b8460095560018060a01b0380600654169060075416938251956370a0823160e01b9283885230828901528288602481845afa9788156103ff5789986103ca575b50610355908661034f6001600160701b039a8b600854169061178b565b9161183c565b835192835230908301528082602481885afa9283156103c15750869261038d575b505061034f906101a19460085460701c169061178b565b90809250813d83116103ba575b6103a48183611629565b810103126103b657518361034f610376565b8480fd5b503d61039a565b513d88823e3d90fd5b9097508281813d83116103f8575b6103e28183611629565b810103126103f4575196610355610332565b8880fd5b503d6103d8565b85513d8b823e3d90fd5b8380fd5b838234610271578160031936011261027157602090516103e88152f35b83823461027157806003193601126102715760209061045461044a6115f8565b6024359033611661565b5160018152f35b50829034610271578160031936011261027157805191809380549160019083821c92828516948515610555575b60209586861081146105425785895290811561051e57506001146104c6575b6104c287876104b8828c0383611629565b51918291826115af565b0390f35b81529295507f8a35acfbc15ff81a39ae7d344fd709f28e8600b4aa8c65c6b64bfe7fe36bd19b5b82841061050b57505050826104c2946104b8928201019486806104a7565b80548685018801529286019281016104ed565b60ff19168887015250505050151560051b83010192506104b8826104c286806104a7565b634e487b7160e01b845260228352602484fd5b93607f1693610488565b509134610781576020806003193601126102715761057b6115f8565b610589600160095414611750565b600983905560065460075486516370a0823160e01b80825230828901526001600160a01b03938416979196602493909290851691878986818d5afa988915610945578499610916575b508a5199818b5230838c0152888b8781875afa9a8b156107cb57859b6108e7575b508b5199828b5230848c0152898b8881305afa9a8b156108dd57869b6108aa575b508c516318160ddd60e01b81528a818681305afa9081156108a0578c90889261086e575b506106528261064d6106599561064d94611798565b6117ab565b9d8d611798565b998b151580610865575b1561081757301561080157308652858a528c8620548181106107d5579186828f8d948b979630855284875203818420558160025403600255519081526000805160206119ae833981519152843092a36106bd8d8b8361183c565b6106c88c8b8861183c565b8d519788809285825230888301525afa9586156107cb5790899392918697610796575b508c519485938492835230908301525afa91821561078b578092610756575b5050610715916117cb565b855191858352848484015216907fdccd412f0b1252819cb1fd330b93224ca42612892bb3f4f789976e6d81936496863392a360016009558351928352820152f35b9091508582813d8311610784575b61076e8183611629565b810103126107815750516107153861070a565b80fd5b503d610764565b8951903d90823e3d90fd5b84819394959298503d83116107c4575b6107b08183611629565b810103126103b657908892915195386106eb565b503d6107a6565b8c513d87823e3d90fd5b8d5163391434e360e21b8152308187019081526020810192909252604082019290925281906060010390fd5b8c51634b637e8f60e11b81528085018790528790fd5b8c5162461bcd60e51b81528085018b90526023818901527f506f6f6c3a20494e53554646494349454e545f4c49515549444954595f42555260448201526213915160ea1b6064820152608490fd5b508a1515610663565b8092508c8092503d8311610899575b6108878183611629565b8101031261021357518b610652610638565b503d61087d565b8e513d89823e3d90fd5b909a508981813d83116108d6575b6108c28183611629565b810103126108d257519938610614565b8580fd5b503d6108b8565b8d513d88823e3d90fd5b909a508881813d831161090f575b6108ff8183611629565b810103126103b6575199386105f3565b503d6108f5565b9098508781813d831161093e575b61092e8183611629565b81010312610409575197386105d2565b503d610924565b8b513d86823e3d90fd5b8382346102715760203660031901126102715760209181906001600160a01b036109776115f8565b16815280845220549051908152f35b50346101d45760603660031901126101d457813590602491823591604480359060018060a01b039081831697888403610de1576109c7600160095414611750565b8960095585159182158093610dd8575b15610d9857600854986001600160701b03808b169a60701c16958a891080610d8f575b15610d4e578560065416956007541694868d141580610d44575b15610d1057908d94939291610d00575b8a80610cef575b5050875195866370a0823160e01b918282523086830152818460209a8b935afa958615610ce4579088929196610caf575b50828a5180988193825230888301525afa948515610ca5578d95610c72575b50610a86898c61178b565b841115610c6b57610aa0610a9a8a8d61178b565b8561178b565b9a5b8d610aad8c8a61178b565b8711159050610c6457610ac9610ac38c8a61178b565b8761178b565b975b8c15801581610c5b575b15610c1a576103e89081880290888204831489151715610bf157908f91600383029283046003141715610bf15790610b0c9161178b565b90808902908982041489151715610c065760038b02908b82046003148c151715610bf15791610b42610b4892610b4e959461178b565b90611798565b92611798565b90620f424091828102928184041490151715610bdf5710610bb45750505090610b76916117cb565b825195865285015283015260608201527fd78ad95fa46c994b6551d0da85fc275fe613ce37657fb8d5e3d130840159d82260803392a3600160095580f35b875162461bcd60e51b815292830186905260079083015266506f6f6c3a204b60c81b90820152606490fd5b634e487b7160e01b8f5260118552828ffd5b505050828f601187634e487b7160e01b835252fd5b5050634e487b7160e01b8f5260118552828ffd5b8a5162461bcd60e51b81528087018a9052601f818601527f506f6f6c3a20494e53554646494349454e545f494e5055545f414d4f554e540081870152606490fd5b50891515610ad5565b8d97610acb565b8c9a610aa2565b9094508581813d8311610c9e575b610c8a8183611629565b81010312610c9a57519338610a7b565b8c80fd5b503d610c80565b88513d8f823e3d90fd5b8281939297503d8311610cdd575b610cc78183611629565b81010312610cd9578690519438610a5c565b8d80fd5b503d610cbd565b8a51903d90823e3d90fd5b610cf9918761183c565b388a610a2b565b610d0b8a828961183c565b610a24565b885162461bcd60e51b81526020818701526010818501526f506f6f6c3a20494e56414c49445f544f60801b81860152606490fd5b50858d1415610a14565b875162461bcd60e51b8152602081860152601c818401527f506f6f6c3a20494e53554646494349454e545f4c49515549444954590000000081850152606490fd5b50868a106109fa565b907f506f6f6c3a20494e53554646494349454e545f4f55545055545f414d4f554e5460649260208b818a519562461bcd60e51b8752860152840152820152fd5b508715156109d7565b8980fd5b50346101d4576020928360031936011261078157610e016115f8565b92600191610e128360095414611750565b80600955600854906001600160701b038083169260701c169260018060a01b0390816006541692875180938b826370a0823160e01b97888252308783015260249485915afa94851561116f578395611179575b508b816007541696838c5180998193825230898301525afa95861561116f578396611140575b508b610e97888761178b565b98610ea2818961178b565b988c51926318160ddd60e01b8452838881305afa9283156108dd57908f918c9392889561110b575b5050836110d9575050610edf91508890611798565b8360038211156110cc575080808b1c8b81018091116110ba57905b82821061109c5750505b6103e719810190811161108a579a817f0000000000000000000000000000000000000000000000000000000000000000168015611074576002546103e890818101809111611062578f87928f6000805160206119ae8339815191529360025585855284835280852082815401905551908152a35b8b156110135716928315610fff57505090610fc8939291610f9b8a60025461172d565b600255818152808b528881208a81540190556000805160206119ae8339815191528b8a518c8152a36117cb565b8351918252858201527f4c209b5fc8ad50758f13e2e1088ba56a560dff690a1c6fef26394f4c03821c4f833392a260095551908152f35b895163ec442f0560e01b8152908101839052fd5b50895162461bcd60e51b81528085018d90526023818401527f506f6f6c3a20494e53554646494349454e545f4c49515549444954595f4d494e60448201526215115160ea1b6064820152608490fd5b634e487b7160e01b8752601188528587fd5b8b5163ec442f0560e01b81528087018690528490fd5b634e487b7160e01b8452601185528284fd5b9091506110b2826110ad81846117ab565b61172d565b8b1c90610efa565b634e487b7160e01b8652601187528486fd5b9015610f04575088610f04565b6110ed61064d9161064d866110f496611798565b938b611798565b8082101561110457505b9a610f78565b90506110fe565b80929550819394503d8311611139575b6111258183611629565b810103126108d257908a9151928f80610eca565b503d61111b565b9095508b81813d8311611168575b6111588183611629565b810103126101d457519438610e8b565b503d61114e565b8a513d85823e3d90fd5b9094508b81813d83116111a1575b6111918183611629565b810103126101d457519338610e65565b503d611187565b50346101d457806003193601126101d4576111c16115f8565b916111ca611613565b6005546001600160a01b0393919291908416330361120d575050816bffffffffffffffffffffffff60a01b93168360065416176006551690600754161760075580f35b906020606492519162461bcd60e51b8352820152600f60248201526e2837b7b61d102327a92124a22222a760891b6044820152fd5b838234610271578160031936011261027157517f00000000000000000000000000000000000000000000000000000000000000006001600160a01b03168152602090f35b8382346102715781600319360112610271576020905160128152f35b509134610781576060366003190112610781576112bd6115f8565b6112c5611613565b916044359360018060a01b038316808352600160205286832033845260205286832054916000198303611301575b602088610454898989611661565b86831061136957811561135257331561133b57508252600160209081528683203384528152918690209085900390558290610454386112f3565b8751634a1406b160e11b8152908101849052602490fd5b875163e602df0560e01b8152908101849052602490fd5b8751637dc7a0d960e11b8152339181019182526020820193909352604081018790528291506060010390fd5b8382346102715781600319360112610271576020906002549051908152f35b83823461027157816003193601126102715760065490516001600160a01b039091168152602090f35b5090346101d457816003193601126101d4576113f76115f8565b602435903315611470576001600160a01b031691821561145957508083602095338152600187528181208582528752205582519081527f8c5be1e5ebec7d5bd14f71427d1e84f3dd0314c0f7b2291e5b200ac8c7c3b925843392a35160018152f35b8351634a1406b160e11b8152908101859052602490fd5b835163e602df0560e01b8152808401869052602490fd5b83823461027157816003193601126102715760085490516001600160701b03808316825260709290921c9091166020820152604090f35b92905034610409578360031936011261040957600354600181811c91869082811680156115a5575b602095868610821461159257508488529081156115705750600114611517575b6104c286866104b8828b0383611629565b929550600383527fc2575a0e9e593c00f959f8c92f12db2869c3395a3b0502d05e2516446f71f85b5b82841061155d57505050826104c2946104b8928201019438611506565b8054868501880152928601928101611540565b60ff191687860152505050151560051b83010192506104b8826104c238611506565b634e487b7160e01b845260229052602483fd5b93607f16936114e6565b6020808252825181830181905290939260005b8281106115e457505060409293506000838284010152601f8019910116010190565b8181018601518482016040015285016115c2565b600435906001600160a01b038216820361160e57565b600080fd5b602435906001600160a01b038216820361160e57565b90601f8019910116810190811067ffffffffffffffff82111761164b57604052565b634e487b7160e01b600052604160045260246000fd5b916001600160a01b0380841692831561171457169283156116fb57600090838252816020526040822054908382106116c9575091604082826000805160206119ae833981519152958760209652828652038282205586815220818154019055604051908152a3565b60405163391434e360e21b81526001600160a01b03919091166004820152602481019190915260448101839052606490fd5b60405163ec442f0560e01b815260006004820152602490fd5b604051634b637e8f60e11b815260006004820152602490fd5b9190820180921161173a57565b634e487b7160e01b600052601160045260246000fd5b1561175757565b60405162461bcd60e51b815260206004820152600c60248201526b141bdbdb0e881313d0d2d15160a21b6044820152606490fd5b9190820391821161173a57565b8181029291811591840414171561173a57565b81156117b5570490565b634e487b7160e01b600052601260045260246000fd5b600880546001600160e01b0319166001600160701b03928316908117607094851b6dffffffffffffffffffffffffffff60701b161791829055604080519182529190931c90911660208301527f1c411e9a96e071241c2f21f7726b17ae89e3cab4c78be50e062b03a9fffbbad191a1565b60405163a9059cbb60e01b602082019081526001600160a01b0393841660248301526044808301959095529381529116919067ffffffffffffffff90608081018281118282101761164b57604052600080938192519082875af13d1561193d573d91821161192957906118d191604051916118c16020601f19601f8401160184611629565b82523d84602084013e5b8461194a565b908151918215159283611901575b5050506118e95750565b60249060405190635274afe760e01b82526004820152fd5b81929350906020918101031261027157602001519081159182150361078157503880806118df565b634e487b7160e01b83526041600452602483fd5b6118d191506060906118cb565b90611971575080511561195f57805190602001fd5b604051630a12f52160e11b8152600490fd5b815115806119a4575b611982575090565b604051639996b31560e01b81526001600160a01b039091166004820152602490fd5b50803b1561197a56feddf252ad1be2c89b69c2b068fc378daa952ba7f163c4a11628f55a4df523b3efa26469706673582212200fbc98e37ecdb2a157f510650614facadab806ef45ba38a4d9f21dc20622a2f364736f6c63430008140033a264697066735822122035424cc46b385454dc31449aa8a0dcdcbc7a7f93b47b9affc3c3dd7257f5991364736f6c63430008140033",
  "linkReferences": {},
  "deployedLinkReferences": {}
}