{
  "_format": "hh-sol-artifact-1",
  "contractName": "Router",
  "sourceName": "contracts/Router.sol",
  "abi": [
    {
      "inputs": [
        {
          "internalType": "address",
          "name": "_factory",
          "type": "address"
        },
        {
          "internalType": "address",
          "name": "_WETH",
          "type": "address"
        }
      ],
      "stateMutability": "nonpayable",
      "type": "constructor"
    },
    {
      "inputs": [
        {
          "internalType": "address",
          "name": "target",
          "type": "address"
        }
      ],
      "name": "AddressEmptyCode",
      "type": "error"
    },
    {
      "inputs": [
        {
          "internalType": "address",
          "name": "account",
          "type": "address"
        }
      ],
      "name": "AddressInsufficientBalance",
      "type": "error"
    },
    {
      "inputs": [],
      "name": "FailedInnerCall",
      "type": "error"
    },
    {
      "inputs": [
        {
          "internalType": "address",
          "name": "token",
          "type": "address"
        }
      ],
      "name": "SafeERC20FailedOperation",
      "type": "error"
    },
    {
      "inputs": [],
      "name": "WETH",
      "outputs": [
        {
          "internalType": "address",
          "name": "",
          "type": "address"
        }
      ],
      "stateMutability": "view",
      "type": "function"
    },
    {
      "inputs": [
        {
          "internalType": "address",
          "name": "tokenA",
          "type": "address"
        },
        {
          "internalType": "address",
          "name": "tokenB",
          "type": "address"
        },
        {
          "internalType": "uint256",
          "name": "amountADesired",
          "type": "uint256"
        },
        {
          "internalType": "uint256",
          "name": "amountBDesired",
          "type": "uint256"
        },
        {
          "internalType": "uint256",
          "name": "amountAMin",
          "type": "uint256"
        },
        {
          "internalType": "uint256",
          "name": "amountBMin",
          "type": "uint256"
        },
        {
          "internalType": "address",
          "name": "to",
          "type": "address"
        },
        {
          "internalType": "uint256",
          "name": "deadline",
          "type": "uint256"
        }
      ],
      "name": "addLiquidity",
      "outputs": [
        {
          "internalType": "uint256",
          "name": "amountA",
          "type": "uint256"
        },
        {
          "internalType": "uint256",
          "name": "amountB",
          "type": "uint256"
        },
        {
          "internalType": "uint256",
          "name": "liquidityTokens",
          "type": "uint256"
        }
      ],
      "stateMutability": "nonpayable",
      "type": "function"
    },
    {
      "inputs": [
        {
          "internalType": "address",
          "name": "token",
          "type": "address"
        },
        {
          "internalType": "uint256",
          "name": "amountTokenDesired",
          "type": "uint256"
        },
        {
          "internalType": "uint256",
          "name": "amountTokenMin",
          "type": "uint256"
        },
        {
          "internalType": "uint256",
          "name": "amountETHMin",
          "type": "uint256"
        },
        {
          "internalType": "address",
          "name": "to",
          "type": "address"
        },
        {
          "internalType": "uint256",
          "name": "deadline",
          "type": "uint256"
        }
      ],
      "name": "addLiquidityETH",
      "outputs": [
        {
          "internalType": "uint256",
          "name": "amountToken",
          "type": "uint256"
        },
        {
          "internalType": "uint256",
          "name": "amountETH",
          "type": "uint256"
        },
        {
          "internalType": "uint256",
          "name": "liquidityTokens",
          "type": "uint256"
        }
      ],
      "stateMutability": "payable",
      "type": "function"
    },
    {
      "inputs": [],
      "name": "factory",
      "outputs": [
        {
          "internalType": "address",
          "name": "",
          "type": "address"
        }
      ],
      "stateMutability": "view",
      "type": "function"
    },
    {
      "inputs": [
        {
          "internalType": "uint256",
          "name": "amountOut",
          "type": "uint256"
        },
        {
          "internalType": "uint256",
          "name": "reserveIn",
          "type": "uint256"
        },
        {
          "internalType": "uint256",
          "name": "reserveOut",
          "type": "uint256"
        }
      ],
      "name": "getAmountIn",
      "outputs": [
        {
          "internalType": "uint256",
          "name": "amountIn",
          "type": "uint256"
        }
      ],
      "stateMutability": "pure",
      "type": "function"
    },
    {
      "inputs": [
        {
          "internalType": "uint256",
          "name": "amountIn",
          "type": "uint256"
        },
        {
          "internalType": "uint256",
          "name": "reserveIn",
          "type": "uint256"
        },
        {
          "internalType": "uint256",
          "name": "reserveOut",
          "type": "uint256"
        }
      ],
      "name": "getAmountOut",
      "outputs": [
        {
          "internalType": "uint256",
          "name": "amountOut",
          "type": "uint256"
        }
      ],
      "stateMutability": "pure",
      "type": "function"
    },
    {
      "inputs": [
        {
          "internalType": "uint256",
          "name": "amountOut",
          "type": "uint256"
        },
        {
          "internalType": "address[]",
          "name": "path",
          "type": "address[]"
        }
      ],
      "name": "getAmountsIn",
      "outputs": [
        {
          "internalType": "uint256[]",
          "name": "amounts",
          "type": "uint256[]"
        }
      ],
      "stateMutability": "view",
      "type": "function"
    },
    {
      "inputs": [
        {
          "internalType": "uint256",
          "name": "amountIn",
          "type": "uint256"
        },
        {
          "internalType": "address[]",
          "name": "path",
          "type": "address[]"
        }
      ],
      "name": "getAmountsOut",
      "outputs": [
        {
          "internalType": "uint256[]",
          "name": "amounts",
          "type": "uint256[]"
        }
      ],
      "stateMutability": "view",
      "type": "function"
    },
    {
      "inputs": [
        {
          "internalType": "uint256",
          "name": "amountA",
          "type": "uint256"
        },
        {
          "internalType": "uint256",
          "name": "reserveA",
          "type": "uint256"
        },
        {
          "internalType": "uint256",
          "name": "reserveB",
          "type": "uint256"
        }
      ],
      "name": "quote",
      "outputs": [
        {
          "internalType": "uint256",
          "name": "amountB",
          "type": "uint256"
        }
      ],
      "stateMutability": "pure",
      "type": "function"
    },
    {
      "inputs": [
        {
          "internalType": "address",
          "name": "tokenA",
          "type": "address"
        },
        {
          "internalType": "address",
          "name": "tokenB",
          "type": "address"
        },
        {
          "internalType": "uint256",
          "name": "liquidity",
          "type": "uint256"
        },
        {
          "internalType": "uint256",
          "name": "amountAMin",
          "type": "uint256"
        },
        {
          "internalType": "uint256",
          "name": "amountBMin",
          "type": "uint256"
        },
        {
          "internalType": "address",
          "name": "to",
          "type": "address"
        },
        {
          "internalType": "uint256",
          "name": "deadline",
          "type": "uint256"
        }
      ],
      "name": "removeLiquidity",
      "outputs": [
        {
          "internalType": "uint256",
          "name": "amountA",
          "type": "uint256"
        },
        {
          "internalType": "uint256",
          "name": "amountB",
          "type": "uint256"
        }
      ],
      "stateMutability": "nonpayable",
      "type": "function"
    },
    {
      "inputs": [
        {
          "internalType": "address",
          "name": "token",
          "type": "address"
        },
        {
          "internalType": "uint256",
          "name": "liquidity",
          "type": "uint256"
        },
        {
          "internalType": "uint256",
          "name": "amountTokenMin",
          "type": "uint256"
        },
        {
          "internalType": "uint256",
          "name": "amountETHMin",
          "type": "uint256"
        },
        {
          "internalType": "address",
          "name": "to",
          "type": "address"
        },
        {
          "internalType": "uint256",
          "name": "deadline",
          "type": "uint256"
        }
      ],
      "name": "removeLiquidityETH",
      "outputs": [
        {
          "internalType": "uint256",
          "name": "amountToken",
          "type": "uint256"
        },
        {
          "internalType": "uint256",
          "name": "amountETH",
          "type": "uint256"
        }
      ],
      "stateMutability": "nonpayable",
      "type": "function"
    },
    {
      "inputs": [
        {
          "internalType": "uint256",
          "name": "amountOut",
          "type": "uint256"
        },
        {
          "internalType": "address[]",
          "name": "path",
          "type": "address[]"
        },
        {
          "internalType": "address",
          "name": "to",
          "type": "address"
        },
        {
          "internalType": "uint256",
          "name": "deadline",
          "type": "uint256"
        }
      ],
      "name": "swapETHForExactTokens",
      "outputs": [
        {
          "internalType": "uint256[]",
          "name": "amounts",
          "type": "uint256[]"
        }
      ],
      "stateMutability": "payable",
      "type": "function"
    },
    {
      "inputs": [
        {
          "internalType": "uint256",
          "name": "amountOutMin",
          "type": "uint256"
        },
        {
          "internalType": "address[]",
          "name": "path",
          "type": "address[]"
        },
        {
          "internalType": "address",
          "name": "to",
          "type": "address"
        },
        {
          "internalType": "uint256",
          "name": "deadline",
          "type": "uint256"
        }
      ],
      "name": "swapExactETHForTokens",
      "outputs": [
        {
          "internalType": "uint256[]",
          "name": "amounts",
          "type": "uint256[]"
        }
      ],
      "stateMutability": "payable",
      "type": "function"
    },
    {
      "inputs": [
        {
          "internalType": "uint256",
          "name": "amountIn",
          "type": "uint256"
        },
        {
          "internalType": "uint256",
          "name": "amountOutMin",
          "type": "uint256"
        },
        {
          "internalType": "address[]",
          "name": "path",
          "type": "address[]"
        },
        {
          "internalType": "address",
          "name": "to",
          "type": "address"
        },
        {
          "internalType": "uint256",
          "name": "deadline",
          "type": "uint256"
        }
      ],
      "name": "swapExactTokensForETH",
      "outputs": [
        {
          "internalType": "uint256[]",
          "name": "amounts",
          "type": "uint256[]"
        }
      ],
      "stateMutability": "nonpayable",
      "type": "function"
    },
    {
      "inputs": [
        {
          "internalType": "uint256",
          "name": "amountIn",
          "type": "uint256"
        },
        {
          "internalType": "uint256",
          "name": "amountOutMin",
          "type": "uint256"
        },
        {
          "internalType": "address[]",
          "name": "path",
          "type": "address[]"
        },
        {
          "internalType": "address",
          "name": "to",
          "type": "address"
        },
        {
          "internalType": "uint256",
          "name": "deadline",
          "type": "uint256"
        }
      ],
      "name": "swapExactTokensForTokens",
      "outputs": [
        {
          "internalType": "uint256[]",
          "name": "amounts",
          "type": "uint256[]"
        }
      ],
      "stateMutability": "nonpayable",
      "type": "function"
    },
    {
      "inputs": [
        {
          "internalType": "uint256",
          "name": "amountOut",
          "type": "uint256"
        },
        {
          "internalType": "uint256",
          "name": "amountInMax",
          "type": "uint256"
        },
        {
          "internalType": "address[]",
          "name": "path",
          "type": "address[]"
        },
        {
          "internalType": "address",
          "name": "to",
          "type": "address"
        },
        {
          "internalType": "uint256",
          "name": "deadline",
          "type": "uint256"
        }
      ],
      "name": "swapTokensForExactETH",
      "outputs": [
        {
          "internalType": "uint256[]",
          "name": "amounts",
          "type": "uint256[]"
        }
      ],
      "stateMutability": "nonpayable",
      "type": "function"
    },
    {
      "inputs": [
        {
          "internalType": "uint256",
          "name": "amountOut",
          "type": "uint256"
        },
        {
          "internalType": "uint256",
          "name": "amountInMax",
          "type": "uint256"
        },
        {
          "internalType": "address[]",
          "name": "path",
          "type": "address[]"
        },
        {
          "internalType": "address",
          "name": "to",
          "type": "address"
        },
        {
          "internalType": "uint256",
          "name": "deadline",
          "type": "uint256"
        }
      ],
      "name": "swapTokensForExactTokens",
      "outputs": [
        {
          "internalType": "uint256[]",
          "name": "amounts",
          "type": "uint256[]"
        }
      ],
      "stateMutability": "nonpayable",
      "type": "function"
    },
    {
      "stateMutability": "payable",
      "type": "receive"
    }
  ],
  "bytecode": "0x60c0346200011557601f620024f838819003918201601f19168301916001600160401b038311848410176200011a57808492604094855283398101031262000115576200005a6020620000528362000130565b920162000130565b9060805260a0526040516123b29081620001468239608051818181610183015281816103c101528181610624015281816106f60152818161073a015281816107ba015281816109a801528181610adc01528181610c6901528181610dfc01528181610e7801528181610f0a0152818161108a015281816117d70152611a26015260a0518181816023015281816101500152818161038a0152818161094c01528181610aac01528181610c3201528181610ed6015261105a0152f35b600080fd5b634e487b7160e01b600052604160045260246000fd5b51906001600160a01b0382168203620001155756fe604060808152600480361015610053575b5050361561001d57600080fd5b610051337f00000000000000000000000000000000000000000000000000000000000000006001600160a01b031614611519565b005b600091823560e01c806302751cec14611033578063054d50d41461101757806318cbafe514610e9c5780631f00ca7414610e5e57806338ed173914610de35780634a25d94a14610be25780637ff36ab514610a8657806385f8c25914610a6a5780638803dbee1461097b578063ad5c464814610937578063ad615dec14610914578063baa2abde14610769578063c45a015514610725578063d06ca61f146106dc578063e8e33700146105a5578063f305d719146103655763fb3bdb411461011b5750610010565b610137610127366114cd565b9691929396949094421115611536565b811561035257610146836119fe565b6001600160a01b037f000000000000000000000000000000000000000000000000000000000000000081169161017e91168214611bcd565b6101b57f0000000000000000000000000000000000000000000000000000000000000000976101ae36868861142b565b9089612216565b966101cb6101c289611960565b51341015611b81565b886101d589611960565b51833b1561034e578185918a5192838092630d0e30db60e41b8252885af180156103445761032c575b5050610209856119fe565b8460011015610319579161022f61026b9492602094610229868a016119fe565b91611cd3565b8a6102398b611960565b518a5163a9059cbb60e01b81526001600160a01b03909316948301948552602085015290948593849291839160400190565b03925af190811561030f57916102946102a195949261029b946102bc9a916102e1575b50611519565b369161142b565b84611a21565b6102aa82611960565b5134116102c0575b519182918261138c565b0390f35b6102dc6102d66102cf84611960565b513461193d565b336122de565b6102b2565b610302915060203d8111610308575b6102fa81836113f1565b8101906115c6565b3861028e565b503d6102f0565b85513d89823e3d90fd5b634e487b7160e01b8a526032845260248afd5b610335906113c7565b6103405788386101fe565b8880fd5b89513d84823e3d90fd5b5080fd5b634e487b7160e01b875260329052602486fd5b6103b3610388848685610377366112b2565b999399989098929192421115611536565b7f00000000000000000000000000000000000000000000000000000000000000009834908a866117aa565b9690956103ee876103e584867f0000000000000000000000000000000000000000000000000000000000000000611cd3565b80953390611574565b6001600160a01b03918216803b156105a1578451630d0e30db60e41b8152868189818d865af1801561057c57859288928a92610586575b50875163a9059cbb60e01b81526001600160a01b0390971691870191825260208281018d9052969287928492918391829060400103925af190811561057c57879161055f575b501561051c57829186859460249388519a8b9687956335313c2160e11b87521690850152165af192831561051157926104da575b506102bc92508434116104c8575b51938493846040919493926060820195825260208201520152565b6104d56102d6863461193d565b6104ad565b90915082813d831161050a575b6104f181836113f1565b81010312610505576102bc9151908561049f565b600080fd5b503d6104e7565b8251903d90823e3d90fd5b845162461bcd60e51b8152808801859052601a60248201527f526f757465723a204641494c454420544f205452414e534645520000000000006044820152606490fd5b6105769150853d8711610308576102fa81836113f1565b8a61046b565b86513d89823e3d90fd5b90935061059391506113c7565b6105a157858785928c610425565b8580fd5b50346106d8576101003660031901126106d8576105c0611286565b926105c961129c565b6001600160a01b039390929060c435858116908190036105055760246020928561065a986105fb4260e4351015611536565b61061360a4356084358d606435908d604435916117aa565b8c8b610653839f859f959e610648917f0000000000000000000000000000000000000000000000000000000000000000611cd3565b9d8e80943390611574565b3390611574565b865198899586946335313c2160e11b8652850152165af19182156106cd5791610698575b519283526020830193909352506040810191909152606090f35b90506020823d82116106c5575b816106b2602093836113f1565b81010312610505576102bc91519061067e565b3d91506106a5565b9051903d90823e3d90fd5b8280fd5b83823461034e576102bc9061071a6106f336611489565b907f000000000000000000000000000000000000000000000000000000000000000061216c565b90519182918261138c565b83823461034e578160031936011261034e57517f00000000000000000000000000000000000000000000000000000000000000006001600160a01b03168152602090f35b5091903461034e5760e036600319011261034e57610785611286565b61078d61129c565b926001600160a01b039060a43582811690819003610505576107b34260c4351015611536565b6107de86857f0000000000000000000000000000000000000000000000000000000000000000611cd3565b87516323b872dd60e01b8152338188019081526001600160a01b0383166020828101919091526044356040830152928616979290829081906060010381878b5af1801561090a57916024918a94936108ec575b50848451988994859363226bf2d160e21b85528401525af19485156108e057819482966108a3575b5090610866839285611c10565b5090501691161460001461089e57905b610884606435831015611712565b61089260843582101561175e565b82519182526020820152f35b610876565b87809297508196503d83116108d9575b6108bd81836113f1565b810103126108d657835160209094015194610866610859565b80fd5b503d6108b3565b508551903d90823e3d90fd5b6109039060203d8111610308576102fa81836113f1565b5038610831565b89513d86823e3d90fd5b83823461034e5760209061093061092a366112f2565b91611ef3565b9051908152f35b83823461034e578160031936011261034e57517f00000000000000000000000000000000000000000000000000000000000000006001600160a01b03168152602090f35b5082903461034e576109a061098f3661133d565b979294919397959095421115611536565b6109ec6109da7f0000000000000000000000000000000000000000000000000000000000000000926109d336878961142b565b9084612216565b976109e489611960565b511115611b81565b8215610a57576109fb846119fe565b91610a05856119fe565b908460011015610a44576102bc89896102b28a61029b8b8b6102948c610a328d8d610229602088016119fe565b610a3b8a611960565b51913390611574565b634e487b7160e01b815260328a52602490fd5b634e487b7160e01b825260328852602482fd5b83823461034e57602090610930610a80366112f2565b91612028565b50610a93610127366114cd565b811561035257610aa2836119fe565b6001600160a01b037f0000000000000000000000000000000000000000000000000000000000000000811691610ada91168214611bcd565b7f0000000000000000000000000000000000000000000000000000000000000000610b10610b0936868861142b565b348361216c565b9788516000198101908111610bcf5790610b2d610b35928b611983565b511015611997565b88610b3f89611960565b51833b1561034e578185918a5192838092630d0e30db60e41b8252885af1801561034457610bbb575b5050610b73856119fe565b8460011015610319579161022f610b939492602094610229868a016119fe565b03925af190811561030f57916102946102b295949261029b946102bc9a916102e15750611519565b610bc4906113c7565b610340578838610b68565b634e487b7160e01b8b526011855260248bfd5b5082903461034e57610c07610bf63661133d565b979397959095949294421115611536565b60001993818501828111610dd057610c23610c289184846119ee565b6119fe565b6001600160a01b037f000000000000000000000000000000000000000000000000000000000000000081169491610c6191168514611bcd565b610c9e610c947f0000000000000000000000000000000000000000000000000000000000000000926109d336878761142b565b996109e48b611960565b8215610dbd57610cad826119fe565b90610cb7836119fe565b8460011015610daa57610cef92610cdd8593610ce6936102296020610cf59a99016119fe565b610a3b8d611960565b3092369161142b565b88611a21565b8551838101908111610d9757610d0b9087611983565b51813b156106d85782916024839288519485938492632e1a7d4d60e01b84528d8401525af18015610d8d57908291610d79575b50508451918201918211610d66576102bc85856102b286610d5f8785611983565b51906122de565b634e487b7160e01b815260118652602490fd5b610d82906113c7565b6108d6578087610d3e565b85513d84823e3d90fd5b634e487b7160e01b835260118852602483fd5b634e487b7160e01b875260328c52602487fd5b634e487b7160e01b855260328a52602485fd5b634e487b7160e01b855260118a52602485fd5b5082903461034e57610df761098f3661133d565b610e2e7f000000000000000000000000000000000000000000000000000000000000000091610e2736868861142b565b908361216c565b9687516000198101908111610e4b5790610b2d6109ec928a611983565b634e487b7160e01b845260118a52602484fd5b83823461034e576102bc9061071a610e7536611489565b907f0000000000000000000000000000000000000000000000000000000000000000612216565b5082903461034e57610eb0610bf63661133d565b60001993818501828111610dd057610c23610ecc9184846119ee565b6001600160a01b037f000000000000000000000000000000000000000000000000000000000000000081169491610f0591168514611bcd565b610f357f000000000000000000000000000000000000000000000000000000000000000091610e2736868661142b565b9889518781019081116110045790610b2d610f50928c611983565b8215610dbd57610f5f826119fe565b90610f69836119fe565b8460011015610daa57610cef92610cdd8593610ce6936102296020610f8f9a99016119fe565b8551838101908111610d9757610fa59087611983565b51813b156106d85782916024839288519485938492632e1a7d4d60e01b84528d8401525af18015610d8d57610ff5575b508451918201918211610d66576102bc85856102b286610d5f8785611983565b610ffe906113c7565b86610fd5565b634e487b7160e01b875260118c52602487fd5b83823461034e5760209061093061102d366112f2565b91611f75565b5091903461034e57611044366112b2565b959295949093944211159061105882611536565b7f00000000000000000000000000000000000000000000000000000000000000009161108390611536565b6110ae82827f0000000000000000000000000000000000000000000000000000000000000000611cd3565b89516323b872dd60e01b8152338682019081526001600160a01b039283166020808301829052604083019a909a52929592919089908290819003606001818e865af1801561127c57918c918c979695949361125f575b5060248251809d819363226bf2d160e21b8352308c8401525af1998a15611255578590869b61121c575b50848061113b8686611c10565b50941693168303611209576111a6929161115d611165929c9b5b8d1015611712565b8a101561175e565b8a5163a9059cbb60e01b898201526001600160a01b0388166024820152604481018b9052906111a182606481015b03601f1981018452836113f1565b6115de565b1691823b1561034e578560248392838b519687948593632e1a7d4d60e01b85528401525af19081156111fe57509184916111e5936111ef575b506122de565b8351928352820152f35b6111f8906113c7565b386111df565b8751903d90823e3d90fd5b986111a692916111659161115d90611155565b809b508c8092503d831161124e575b61123581836113f1565b8101031261124a57878a519a0151993861112e565b8480fd5b503d61122b565b8b513d87823e3d90fd5b611275908b3d8d11610308576102fa81836113f1565b5038611104565b8c513d8d823e3d90fd5b600435906001600160a01b038216820361050557565b602435906001600160a01b038216820361050557565b60c0906003190112610505576001600160a01b03600435818116810361050557916024359160443591606435916084359081168103610505579060a43590565b606090600319011261050557600435906024359060443590565b9181601f840112156105055782359167ffffffffffffffff8311610505576020808501948460051b01011161050557565b60a06003198201126105055760043591602435916044359067ffffffffffffffff8211610505576113709160040161130c565b90916064356001600160a01b0381168103610505579060843590565b6020908160408183019282815285518094520193019160005b8281106113b3575050505090565b8351855293810193928101926001016113a5565b67ffffffffffffffff81116113db57604052565b634e487b7160e01b600052604160045260246000fd5b90601f8019910116810190811067ffffffffffffffff8211176113db57604052565b67ffffffffffffffff81116113db5760051b60200190565b929161143682611413565b9161144460405193846113f1565b829481845260208094019160051b810192831161050557905b82821061146a5750505050565b81356001600160a01b038116810361050557815290830190830161145d565b90604060031983011261050557600435916024359067ffffffffffffffff82116105055780602383011215610505578160246114ca9360040135910161142b565b90565b90608060031983011261050557600435916024359067ffffffffffffffff8211610505576114fd9160040161130c565b90916044356001600160a01b0381168103610505579060643590565b1561152057565b634e487b7160e01b600052600160045260246000fd5b1561153d57565b60405162461bcd60e51b815260206004820152600f60248201526e149bdd5d195c8e8811561412549151608a1b6044820152606490fd5b6040516323b872dd60e01b60208201526001600160a01b03928316602482015292909116604483015260648201929092526115c4916115b68260848101611193565b6001600160a01b03166115de565b565b90816020910312610505575180151581036105055790565b6000806116079260018060a01b03169360208151910182865af1611600611650565b9083611690565b8051908115159182611635575b505061161d5750565b60249060405190635274afe760e01b82526004820152fd5b61164892506020809183010191016115c6565b153880611614565b3d1561168b573d9067ffffffffffffffff82116113db576040519161167f601f8201601f1916602001846113f1565b82523d6000602084013e565b606090565b906116b757508051156116a557805190602001fd5b604051630a12f52160e11b8152600490fd5b815115806116ea575b6116c8575090565b604051639996b31560e01b81526001600160a01b039091166004820152602490fd5b50803b156116c0565b9081602091031261050557516001600160a01b03811681036105055790565b1561171957565b60405162461bcd60e51b815260206004820152601d60248201527f526f757465723a20494e53554646494349454e545f415f414d4f554e540000006044820152606490fd5b1561176557565b60405162461bcd60e51b815260206004820152601d60248201527f526f757465723a20494e53554646494349454e545f425f414d4f554e540000006044820152606490fd5b60405163298d501f60e11b81526001600160a01b03828116600483015283811660248301529396949594937f0000000000000000000000000000000000000000000000000000000000000000808216949392909160209182816044818a5afa90811561191457600091611920575b50161561189d575b5061182b9350611dac565b9290801580611895575b1561184257505050509091565b61185184828897959697611ef3565b9483861161186d57505050506118699082101561175e565b9091565b8395506118699450906118849161188d9394611ef3565b94851115611519565b831015611712565b508315611835565b60405163e343361560e01b81526001600160a01b03848116600483015285166024820152948190869060449082906000905af19485156119145761182b956118e6575b50611820565b8161190592903d1061190d575b6118fd81836113f1565b8101906116f3565b5038806118e0565b503d6118f3565b6040513d6000823e3d90fd5b6119379150833d851161190d576118fd81836113f1565b38611818565b9190820391821161194a57565b634e487b7160e01b600052601160045260246000fd5b80511561196d5760200190565b634e487b7160e01b600052603260045260246000fd5b805182101561196d5760209160051b010190565b1561199e57565b60405162461bcd60e51b815260206004820152602260248201527f526f757465723a20494e53554646494349454e545f4f55545055545f414d4f55604482015261139560f21b6064820152608490fd5b919081101561196d5760051b0190565b356001600160a01b03811681036105055790565b600019811461194a5760010190565b9092917f0000000000000000000000000000000000000000000000000000000000000000919060005b8551600019810190811161194a57811015611b79576001600160a01b0380611a728389611983565b5116906001830180841161194a5781611a8b828b611983565b511682611aa3611a9b8387611c10565b509389611983565b5192168403611b7157600091905b8a51600119810190811161194a578490871015611b6557506002860180871161194a578491611af183611ae88f94611af995611983565b5116828d611cd3565b965b8b611cd3565b16803b156105055760009283606492604096875198899687956336cd320560e11b8752600487015260248601521660448401525af1908115611b5b575090611b479291611b4c575b50611a12565b611a4a565b611b55906113c7565b38611b41565b513d6000823e3d90fd5b90611af9908896611af3565b600090611ab1565b505050509050565b15611b8857565b60405162461bcd60e51b815260206004820152601e60248201527f526f757465723a204558434553534956455f494e5055545f414d4f554e5400006044820152606490fd5b15611bd457565b60405162461bcd60e51b81526020600482015260146024820152730a4deeae8cae47440929cac82989288bea082a8960631b6044820152606490fd5b90916001600160a01b0391828416838216808214611c84571015611c7f57925b91831615611c3a57565b60405162461bcd60e51b815260206004820152601a60248201527f526f7574657248656c7065723a205a45524f5f414444524553530000000000006044820152606490fd5b611c30565b60405162461bcd60e51b815260206004820152602160248201527f526f7574657248656c7065723a204944454e544943414c5f41444452455353456044820152605360f81b6064820152608490fd5b91611cdd91611c10565b6040929192519260208401906bffffffffffffffffffffffff199283809260601b16835260601b16603485015260288452606084019367ffffffffffffffff92818610848711176113db5760e092866040528251902090608083019560ff60f81b875260601b16608183015260958201527f92ecde9b03e3fa7b162d042bda31d023ddfa5b56a5766196dfc9e5f15cdb861160b5820152605585520190838210908211176113db57604052905190206001600160a01b031690565b51906001600160701b038216820361050557565b9080600492611dd0611dbe8684611c10565b50956001600160a01b03938493611cd3565b1660408091815195868092630240bc6b60e21b82525afa938415611e5d576000918295611e18575b505081906001600160701b03809116941694169116146000146118695791565b90809550813d8311611e56575b611e2f81836113f1565b810103126108d6575080611e4e6020611e4786611d98565b9501611d98565b939038611df8565b503d611e25565b50513d6000823e3d90fd5b15611e6f57565b60405162461bcd60e51b8152602060048201526024808201527f526f7574657248656c7065723a20494e53554646494349454e545f4c495155496044820152634449545960e01b6064820152608490fd5b8181029291811591840414171561194a57565b8115611edd570490565b634e487b7160e01b600052601260045260246000fd5b8015611f26576114ca92611f189183151580611f1d575b611f1390611e68565b611ec0565b611ed3565b50811515611f0a565b60405162461bcd60e51b815260206004820152602160248201527f526f7574657248656c7065723a20494e53554646494349454e545f414d4f554e6044820152601560fa1b6064820152608490fd5b8015611fd357811592831580611fca575b611f8f90611e68565b6103e58083029283040361194a57611fa79082611ec0565b926103e880840293840414171561194a57810180911161194a576114ca91611ed3565b50801515611f86565b60405162461bcd60e51b815260206004820152602760248201527f526f7574657248656c7065723a20494e53554646494349454e545f494e50555460448201526617d05353d5539560ca1b6064820152608490fd5b919082156120985782816120469215158061208f57611f1390611e68565b916103e89283810293818504149015171561194a576120649161193d565b6103e59081810291818304149015171561194a5761208191611ed3565b6001810180911161194a5790565b50831515611f0a565b60405162461bcd60e51b815260206004820152602860248201527f526f7574657248656c7065723a20494e53554646494349454e545f4f555450556044820152671517d05353d5539560c21b6064820152608490fd5b156120f557565b60405162461bcd60e51b815260206004820152601a60248201527f526f7574657248656c7065723a20494e56414c49445f504154480000000000006044820152606490fd5b9061214482611413565b61215160405191826113f1565b8281528092612162601f1991611413565b0190602036910137565b929161217c6002825110156120ee565b612186815161213a565b9161219083611960565b5260005b8151600019810190811161194a57811015612210576001600160a01b0390816121bd8285611983565b511691600182019081831161194a576121fe6121ed61220b95612205936121e4868a611983565b5116908b611dac565b906121f8868a611983565b51611f75565b9186611983565b52611a12565b612194565b50509150565b9291926122276002855110156120ee565b612231845161213a565b938451926000199384810190811161194a5761224d9087611983565b52805183810190811161194a57805b6122665750505050565b8381018181116122c9576122ba6122b36122a26001600160a01b038061228c8689611983565b5116906122998789611983565b51169088611dac565b906122ad868c611983565b51612028565b9188611983565b5280156122c95783018061225c565b60246000634e487b7160e01b81526011600452fd5b604051602081019080821067ffffffffffffffff8311176113db576000938493848094938194604052525af1612312611650565b501561231a57565b60405162461bcd60e51b815260206004820152603460248201527f5472616e7366657248656c7065723a3a736166655472616e736665724554483a60448201527308115512081d1c985b9cd9995c8819985a5b195960621b6064820152608490fdfea2646970667358221220669098389987ce56af01fd4c60c604741a8f7ed9634f6e8361d199279c1be85a64736f6c63430008140033",
  "linkReferences": {},
  "deployedLinkReferences": {}
}